:020000041000EA
:1000000000B5324B212058609868022188439860DF
:10001000D860186158612E4B002199600221596106
:100020000121F02299502B49196001219960352056
:1000300000F044F80222904214D00621196600F024
:1000400034F8196E01211966002018661A6600F04E
:100050002CF8196E196E196E052000F02FF8012189
:100060000842F9D1002199601B49196000215960AB
:100070001A491B48016001219960EB211966A021F2
:10008000196600F012F800219960164914480160C1
:100090000121996001BC002800D000471248134993
:1000A000086003C880F30888084703B5996A0420EC
:1000B0000142FBD001200142F8D103BD02B5186610
:1000C0001866FFF7F2FF186E186E02BD00000240BE
:1000D000000000180000070000035F00212200005C
:1000E000F4000018222000A00001001008ED00E03C
:1000F00000000000000000000000000074B24E7A12
:1001000000200420F7010010C3010010C5010010F9
:10011000C1010010C1010010C1010010C101001097
:10012000C1010010C1010010C1010010C910001070
:10013000C1010010C1010010111100103513001091
:10014000CD010010CD010010CD010010CD01001037
:10015000CD010010CD010010CD010010CD01001027
:10016000CD010010CD010010CD010010CD01001017
:10017000CD010010CD010010CD010010CD01001007
:10018000CD010010CD010010CD010010CD010010F7
:10019000CD010010CD010010CD010010CD010010E7
:1001A000CD010010CD010010CD010010CD010010D7
:1001B000CD010010CD010010CD010010CD010010C7
:1001C00000BE00BE00BE00BE00BE00BEEFF3058054
:1001D000103800BEF2EB8871BCB20010DCB2001027
:1001E0003402001090A31AE700201F49086006C8D7
:1001F00081F3088810471D48006800282FD10DA4FE
:100200000ECC002902D000F012F8F9E71849194A7B
:10021000002000E001C19142FCD1174988471749ED
:1002200088471749884700BEFDE701C901C29A42C5
:10023000FBD37047DCB20010C00000207C0C002013
:1002400098BE0010000004200000042098BE00109A
:10025000001004200010042000000000704709482E
:1002600005F090FF0047000008ED00E0000000D01E
:10027000800C0020C01B02204160001031100010D3
:10028000016000105756000006005250ABB3605397
:10029000F4A6001006005250861C030204A70010AA
:1002A000060052505422A29D0CA700100500525087
:1002B000DE65F46898BE0010F8B5C04606480749E8
:1002C000091A8B10C90FC91810B5491003D0044B77
:1002D000002B00D0984710BD7C0C00207C0C002027
:1002E00000000000054B10B5002B03D00449054861
:1002F00000E000BFFFF7E2FF10BDC04600000000B5
:100300008C170020E898001070B5192002F0E6FD67
:10031000D0231B06802292045A62D0242406802512
:10032000AD046561642001F0D7FFA561642001F090
:10033000D3FFF2E7F0B5C64600B582B0012004F065
:10034000C1FA0700002651E00A2C01D0002435E054
:10035000B01C04F0B7FA0500002302E0FA5CEA548E
:1003600001339E42FAD2AC550136AB1900221A7005
:10037000380004F015FB002406E0295D2148230025
:100380000A0004F02DFD0134A642F6D21E482900D1
:1003900004F026FD1D4B18680023009304332A0047
:1003A000002102F0B3F9FA20400001F095FF01208E
:1003B00004F088FA0700002615E00024002C12D073
:1003C000731C9846180004F07DFA0500002302E033
:1003D000FA5CEA5401339E42FAD2AC55380004F07C
:1003E000DFFA46462F000A2001F076FFFA2080004F
:1003F00004F006FDC4B2FF2CDFD01F2CA4D90A2CB8
:10040000DCD1F0E7E898001004990010881B022066
:10041000F8B5CE46474680B580460F0016001D0051
:1004200008AB1B789946082004F04CFA04008C2392
:100430000370434643708770C67005714B46437125
:1004400000238371C371C046C046C046D0252D0627
:100450008026B601AE61C046C046C04608220100F3
:100460000C4809F0F1F9C046C046C0466E61C0466E
:10047000C046C046200004F093FA02E00A2001F0D2
:100480002BFFD0231B065B685B01F7D4C0BCB946C9
:10049000B046F8BD00000440F0B5DE4657464E4673
:1004A0004546E0B589B0060002910392049312AB71
:1004B0001B789A4613AB1D7814AB1B78994615AB85
:1004C0001B78059316AB1B78069317AB1B789846E1
:1004D00018AB1B78079319AB1F7802E00A2001F0D4
:1004E000FBFED0231B065B685B01F7D4022004F0FF
:1004F000E9F90400802303704670C046C046C04638
:10050000D026360680239B019B46B361C046C04679
:10051000C04602220100B54809F096F9C046C0461F
:10052000C0465B467361C046C046C046200004F02A
:1005300037FA02E00A2001F0CFFED0231B065B68E9
:100540005B01F7D4022004F0BDF904008A23037094
:10055000029B4370C046C046C046D0263606802364
:100560009B019B46B361C046C046C04602220100C3
:100570009E4809F069F9C046C046C0465B467361B3
:10058000C046C046C046200004F00AFA02E00A2035
:1005900001F0A2FED0231B065B685B01F7D40420A8
:1005A00004F090F9040086230370039B4370049BBE
:1005B00083705346C370C046C046C046D026360638
:1005C00080239B019A46B361C046C046C0460422C0
:1005D0000100864809F038F9C046C046C046534677
:1005E0007361C046C046C046200004F0D9F902E05D
:1005F0000A2001F071FED0231B065B685B01F7D473
:10060000032004F05FF904008F2303700F3B437055
:1006100000238370C046C046C046D02636068023DD
:100620009B019A46B361C046C046C0460322010002
:100630006E4809F009F9C046C046C046534673618A
:10064000C046C046C046200004F0AAF902E00A20D5
:1006500001F042FED0231B065B685B01F7D4042047
:1006600004F030F904008B23037045704B4683700F
:10067000059BC370C046C046C046D02636068023C0
:100680009B019946B361C046C046C04604220100A2
:10069000564809F0D9F8C046C046C0464B4673617B
:1006A000C046C046C046200004F07AF9802D5FD0D5
:1006B0002DD8602D04D0702D5AD0502D00D081E05F
:1006C000042004F0FFF80400182303700F3B43706C
:1006D0001C338370073BC370C046C046C046D0255C
:1006E0002D068026B601AE61C046C046C046042233
:1006F00001003E4809F0A8F8C046C046C0466E61F9
:10070000C046C046C046200004F04AF95AE0B02D69
:1007100004D02AD8902D01D0A02D53D1042004F06C
:10072000D1F80400182303700F3B43701C3383700F
:100730000D33C370C046C046C046D0252D06802666
:10074000B601AE61C046C046C0460422010027483B
:1007500009F07AF8C046C046C0466E61C046C04641
:10076000C046200004F01CF92CE0C02DD6D029E0B2
:10077000042004F0A7F80400182303700F3B437013
:100780001C3383701233C370C046C046C046D025A8
:100790002D068026B601AE61C046C046C046042282
:1007A0000100124809F050F8C046C046C0466E61CC
:1007B000C046C046C046200004F0F2F802E00A201D
:1007C00001F08AFDD0231B065B685B01F7D400971C
:1007D000079B7E2241460698FFF71AFE09B0F0BC3F
:1007E000BB46B246A946A046F0BDC0460000044044
:1007F000F0B5DE4657464E464546E0B585B08346E1
:100800000D0017001E000EAB1B789A460FAB1B782D
:10081000994610AB1B78984611AB1B78029312AB2C
:100820001B780393032004F04DF804008E2303701B
:100830005B4643708570C046C046C046D0252D0635
:1008400080239B019B46AB61C046C046C046032245
:100850000100B94808F0F8FFC046C046C0465B46F4
:100860006B61C046C046C046200004F099F802E023
:100870000A2001F031FDD0231B065A688023DB04D7
:1008800014001C401A42F3D1B31C9B46180004F01C
:1008900019F805001A2303706633437007E0A31CA0
:1008A000395DE954A5480A0004F09AFA0134A642D9
:1008B000F5D8A348390004F093FAC046C046C046B4
:1008C000D02424068027BF01A761C046C046C04689
:1008D0005A462900984808F0B7FFC046C046C046AF
:1008E0006761C046C046C046280004F059F802E0DF
:1008F0000A2001F0F1FCD0231B065B685B01F7D4F2
:1009000040230093203B320000210C20FFF780FDA4
:10091000092003F0D7FF04008D2303705346437072
:100920004B4683700023C370037143718371C3719D
:100930000372C046C046C046D0252D068026B601AB
:10094000AE61C046C046C046092201007A4808F0A0
:100950007BFFC046C046C0466E61C046C046C0462A
:10096000200004F01DF802E00A2001F0B5FCD023BD
:100970001B065B685B01F7D4042003F0A3FF0400AF
:100980008323037043464370029B8370039BC370B1
:10099000C046C046C046D0252D068026B601AE61B1
:1009A000C046C046C04604220100634808F04CFF20
:1009B000C046C046C0466E61C046C046C046200024
:1009C00003F0EEFF02E00A2001F086FCD0231B06B4
:1009D0005A688023DB0416001E401A42F3D100251A
:1009E00010E00A2001F078FCD0231B065B685B0155
:1009F000F7D4E9785348320004F0F2F9E978002995
:100A000034D10136192E38D8280003F0C9FF32201E
:100A100001F062FC042003F055FF0400042003F001
:100A200051FF05001523237000236370A370E3704A
:100A3000C046C046C046D0273F0680239B0198464B
:100A4000BB61C046C046C0460423020021003A48AC
:100A500008F012FFC046C046C04643467B61C04610
:100A6000C046C046200003F09BFFBDE73648320079
:100A700004F0B6F9280003F093FF032003F022FFEF
:100A8000040097230370683343708370C046C046E8
:100A9000C046D0252D068026B601AE61C046C046B0
:100AA000C04603220100244808F0CEFEC046C046DE
:100AB000C0466E61C046C046C046200003F070FFCD
:100AC00002E00A2001F008FCD0231B065B685B01F2
:100AD000F7D4022003F0F6FE040080230370002305
:100AE0004370C046C046C046D0252D068026B601BC
:100AF000AE61C046C046C046022201000E4808F062
:100B0000A3FEC046C046C0466E61C046C046C04651
:100B1000200003F045FF02E00A2001F0DDFBD023B6
:100B20001B065B685B01F7D405B0F0BCBB46B24660
:100B3000A946A046F0BDC04600000440249900101C
:100B4000409900106099001074990010F0B5D646D5
:100B50004F464646C0B506000D009146984608AB84
:100B60001F78092003F0AEFE04008D230370467049
:100B700085700023C370037143718371C371037265
:100B8000C046C046C046D0252D068026B601AE61BF
:100B9000C046C046C04609220100B74808F054FECE
:100BA000C046C046C0466E61C046C046C046200032
:100BB00003F0F6FE02E00A2001F08EFBD0210906C8
:100BC00049684901F7D4042003F07CFE0400822325
:100BD00003704B46437043468370C770C046C0469F
:100BE000C046D0252D068026B601AE61C046C0465F
:100BF000C04604220100A04808F026FEC046C046B8
:100C0000C0466E61C046C046C046200003F0C8FE24
:100C100002E00A2001F060FBD0231B065A68802303
:100C2000DB0416001E401A42F3D1192E3BD893481C
:100C3000310004F0D5F8322001F04EFB042003F01F
:100C400041FE0400042003F03DFE0500152323703F
:100C500000236370A370E370C046C046C046D0272F
:100C60003F0680239B019846BB61C046C046C046F4
:100C7000042302002100804808F0FEFDC046C04663
:100C8000C04643467B61C046C046C046200003F0D4
:100C900087FEEB789A0701D40136C6E75B0625D5B7
:100CA000774804F06DF8022003F00CFE0400802366
:100CB000037000234370C046C046C046D0252D06B1
:100CC0008026B601AE61C046C046C0460222010081
:100CD000694808F0B9FDC046C046C0466E61C046CE
:100CE000C046C046200003F05BFED4E0280003F0BD
:100CF00057FE02E00A2001F0EFFAD0231B065B68E2
:100D00005B01F7D4032003F0DDFD0400972303709B
:100D1000683343708370C046C046C046D0252D0658
:100D20008026B601AE61C046C046C046032201001F
:100D3000514808F089FDC046C046C0466E61C046B5
:100D4000C046C046200003F02BFE02E00A2001F05E
:100D5000C3FAD0231B065B685B01F7D4042003F0C1
:100D6000B1FD0400042003F0ADFD0600172323703D
:100D700000236370A370E370C046C046C046D02510
:100D80002D068027BF01AF61C046C046C046043370
:100D900002002100384808F06FFDC046C046C0463A
:100DA0006F61C046C046C046B578F778200003F0B2
:100DB000F7FD300003F0F4FD02E00A2001F08CFAA8
:100DC000D0231B065A688023DB0414001C401A42FF
:100DD000F3D1EB1C9946180003F074FD8046484699
:100DE00003F070FD0600002304E04246D218002103
:100DF00011700133AA1C9A42F7DA1B234246137082
:100E000057702048390003F0EBFF1F48290003F01A
:100E1000E7FFC046C046C046D0273F0680239B015F
:100E20009A46BB61C046C046C0464B46320041466A
:100E3000114808F021FDC046C046C04653467B61BC
:100E4000C046C046C046404603F0AAFD07E0E31C8A
:100E5000F15C0E4823000A0003F0C2FF0134A542F2
:100E6000F5D802E00A2001F037FAD0231B065B68B0
:100E70005B01F7D417E7C0460000044084990010D6
:100E800094990010A4990010BC990010D8990010F2
:100E90000A2001F021FAD0231B065B685B01F7D41E
:100EA000E0BCBA46B146A846F0BDC04610B51A200F
:100EB00002F014F8D02424068023DB04A362082067
:100EC00002F00CF880235B00636263610B490C48FD
:100ED00008F01EFC01210A2001F0E8FF01210B208F
:100EE00001F0E4FF01210C2001F0E0FF0D2001F0F2
:100EF000F5FF80239B016362636110BD40420F00D8
:100F000000000440F0B58BB0042003F0DBFC0500CA
:100F10000026FFF7CBFFD0231B06802252009A61E8
:100F2000C046C046C0465A6160E03D480A0003F032
:100F300057FF01342B68195D0029F6D13948190093
:100F400003F04EFF2E685DE00024F3E7E218002175
:100F5000117001337D2BF9DD089440230793203B6A
:100F60000693002305930C3304930B3B039309333F
:100F7000029346330193393300931433B82201218D
:100F80000020FFF789FA200003F00AFDFF230093F9
:100F9000022273214020FFF7D9FD371E23D00026FF
:100FA000002405E0013620480A0003F019FF01344F
:100FB000395D0029F6D17E2E2DDCF3B2F4220492A5
:100FC000F33A03920221029101923F3200923A00D9
:100FD000DE311F20FFF70CFC002003F0E1FC38009D
:100FE00003F0DEFC00260A2001F076F901216423DB
:100FF00000932B0000224942002001F02BFB2B68BC
:10100000002BA1D10A2001F067F97E2003F05AFCE1
:10101000040000239EE7054803F0B2FE7E26CCE7DD
:10102000F89900101C9A00104C9A0010689A001051
:1010300030B583B003F0E0FE802210491048114B18
:101040000193012400940023D20000F097FF802533
:101050006D010D490D480E4B0193009400232A00A9
:1010600000F08CFF0B490C480C4B019300940023BB
:101070002A0000F083FF00F0BDFFFEE7989A001001
:1010800009030010681B0220A49A00103503001009
:10109000AC1B0220B09A0010050F0010881B022024
:1010A000084B5B6A994209D8064A926A824207D283
:1010B000994201D0012002E0002000E000207047AA
:1010C0000120FCE7004005407047000000000000E0
:1010D0000B4A13681868203080F30988022080F3D7
:1010E0001488BFF36F8F3FBCAE4608BC04BC62B629
:1010F0001847C046C046C046C046C046C046C04667
:10110000C0170020000000000000000000000000E8
:10111000EFF30980164B1A6820381060F0C044467F
:101120004D4656465F46F0C00D221207146E556EAE
:10113000566F176F3038F0C008B572B601F0DCF8A2
:1011400062B60CBC116808681030F0C8A046A94609
:10115000B246BB4680F309880D2212073038F0C82A
:101160001466556656671767F0C81847C046C046EC
:10117000C017002010B504F0F7FF000000B583B0E1
:1011800002E0D0231B069B6DD0231B061B6DDB07E3
:10119000F7D4D0231B06FF221A6500230193124BBC
:1011A0001A68EFF3108072B61368002BFCD0BFF3FF
:1011B0005F8F0E490A6800230B600B490968BFF373
:1011C0005F8F0B6080F31088094B1968094801ABE9
:1011D00001F0BCFC019B002B03D0074B8022520581
:1011E0001A6003B000BDC046BC170020701A022070
:1011F000D81A02204517001004ED00E010B5002BAE
:1012000002DB0260436010BD024B034A03483F21EA
:1012100004F0FAFEB89A001084AB0010D49A0010C3
:1012200010B582B0040002F00BFF02000B0068460C
:10123000FFF7E4FF009A019B22606360200002B088
:1012400010BD000030B583B004000D006846FFF704
:10125000E7FF009A019B20002900801A99410A4A61
:1012600001235B4280185941002907DC02D000208D
:1012700003B030BDFA239B009842F8D3FA229200C3
:10128000002304F0F9FFF3E718FCFFFF10B5031F7C
:10129000802464041C60043B1960044B01000C3979
:1012A0000B600300203B1A60403810BD7511001020
:1012B000044B802252051A60BFF34F8FBFF36F8F2C
:1012C0007047C04604ED00E072B6044A136801336B
:1012D0001360BFF34F8FBFF36F8F70476C1A0220FC
:1012E000074B1A68002A08D000211960054B1B68BB
:1012F000BFF35F8F116083F3108862B67047C046FA
:1013000028180020541A022010B5054A1368013B22
:101310001360002B00D010BDFFF7E2FFFBE7C046D3
:101320006C1A0220EFF3108072B6704780F31088B9
:101330007047000010B5FFF7F5FF040000F090FEC5
:10134000002803D0034B802252051A602000FFF7CB
:10135000EDFF10BD04ED00E010B5094C0023236043
:10136000084A1360052001F009FDFA21890004F004
:101370005DFF0138044B18600723236010BDC04691
:1013800010E000E018E000E014E000E010B5214BB0
:101390001968FF2212040A431A601968FF22120614
:1013A0000A431A601C490220404203F013FA1B4909
:1013B0000120404203F00EFA19490520404203F093
:1013C00009FAFFF7C9FF174B00221A60D0231B064A
:1013D0001C68154A1470FF221A6502E0D0231B0610
:1013E0009B6DD0231B061B6DDB07F7D40F34FF2149
:1013F000200002F02BF80D49200001F031FE012100
:10140000200001F003FEFFF763FE00F075FFFFF719
:10141000B1FEC04620ED00E01111001035130010A0
:10142000C91000106C1A0220700B00207D110010F2
:1014300010B5094B1B78D02212061068834200D0E9
:1014400010BDEFF30583002B02D05B00C018F7E757
:1014500001F0EEF8F4E7C046700B002010B582B042
:1014600002682C4B9C4662449210012393401A025E
:101470001A43120A284B1C78D0231B061B689C4277
:1014800020D040BF0468254B1B689C423DD01C689F
:10149000002CFCD0BFF35F8F214C236813432360E3
:1014A0001E4B1B68BFF35F8F00221A600023D022FF
:1014B000120653650268BFF35F8F136081F31088D3
:1014C00002B010BD40BF0368BFF35F8F00201860FB
:1014D00081F31088EFF30583DBB2002B05D1114BAC
:1014E0001868110000F0FFF8EAE7002301930D4BA4
:1014F00019680D4801AB01F029FB019B002BDFD0DF
:101500000A4B802252051A60DAE7054C2368134320
:101510002360CBE700FFFF2F700B0020BC170020DB
:10152000701A0220D81A02204517001004ED00E0BE
:10153000F0B583B007000E0015001C00204B1A7890
:10154000D0231B061B689A420ED00368BFF35F8F3F
:1015500000221A6081F310882800210002F0EAFCC2
:101560000400200003B0F0BD28002100FFF76AFE50
:10157000031E0FD13B68BFF35F8F00221A6086F312
:10158000108828002100FFF78BFD041EE9D1FFF72A
:101590008FFEE6E73A680B490A600B490E600B497B
:1015A0008C4662449210012191400A021143090ABB
:1015B000074A106800930023012200F03AF8E0E7A0
:1015C000700B002028180020541A022000FFFF2F63
:1015D000D81A022010B501F049FC054B9C46604426
:1015E0008000044B186000F018F8034B186010BD21
:1015F00040000034BC170020D81A0220002A03D172
:10160000014206D1100003E00840884203D00020C8
:1016100070470120FCE70120FAE710B5182003F01D
:1016200051F9041E03D0002308C000F08FF82000F9
:1016300010BDF0B5C64600B505000E0090461F006F
:1016400000F0FAFC2C683A0031002000FFF7D6FFCA
:10165000002808D04346002B1BD02300B3432B6047
:101660000023069317E0069B002B14D04346002B63
:101670000CD10021002F02D08023DB041943314319
:10168000281D069A00F08AFE002404E08021490407
:10169000F0E70023069300F083FD069B002B08D0A3
:1016A00000280AD000F0CAFF0400830108D52402F4
:1016B000240A200080BCB846F0BDFFF7F9FDF1E731
:1016C000FFF702FE2C683A0031002000FFF796FF7A
:1016D000002805D04346002B02D02300B3432B60E3
:1016E000FFF712FEE3E7F8B504000D0006000C3624
:1016F00000F0A2FC206921682943216000270BE04B
:1017000021681940994206D111E02368802189049B
:10171000194300F0F3FE2800B0420CD0456802687F
:1017200013021B0A5101EBD421680B42F3D0D20102
:10173000EBD51F43E9E72368BB43236000F030FD8E
:101740002068F8BD10B5FFF7CEFF10BD03000833C9
:101750004360012252428260C36003610023036040
:10176000704700230361704730B50D686B1C10D0C3
:10177000030008331C005B681A68AA42FAD9636840
:101780004B6099608C60616008610368013303609D
:1017900030BD0469F3E70369416882688A60416883
:1017A00051605A68824206D0002202611A68013AEA
:1017B0001A601868704782685A60F5E710B504002F
:1017C000FFF782FDA36B002B04D10124FFF79CFDE2
:1017D000200010BD0024F9E770B504001600856BE9
:1017E000026C002A1ED0002E0CD1406805F01CFCB3
:1017F0006368226C9B186360A268934212D32368CB
:1018000063600FE0C06805F00FFCE368226C514292
:101810009B1AE3602268934202D2A3685B18E360DC
:10182000022E03D00135A563002070BD002DF9D034
:10183000013DF7E710B5030008001A6C002A0AD032
:10184000DC68A418DC6099688C4201D31968D960FF
:10185000D96805F0E9FB10BD70B50500FFF734FD50
:101860004523EC5C64B201E0013C64B2002C0BDD6A
:101870006B6A002B08D02800243000F0CFFD002830
:10188000F2D000F0CFFEEFE74523FF22EA54FFF746
:101890003BFDFFF719FD4423EC5C64B201E0013C21
:1018A00064B2002C0BDD2B69002B08D0280010300F
:1018B00000F0B4FD0028F2D000F0B4FEEFE74423BE
:1018C000FF22EA54FFF720FD70BDF8B504000D00BB
:1018D000002852D0C36B002B51D0026C0026190C8B
:1018E000100C002914D181B2002903D1002E14D08C
:1018F000002045E0011C181C9BB292B25A4380B2F2
:101900008BB24343120C9B181B0CEFD00126EDE762
:1019100080B20028FAD1101CEEE7FFF7D5FC226850
:10192000E36B206C010059435118A1600021A163B1
:101930006260013B4343D218E260FF234422A35478
:101940000132A354002D0FD12369002B03D1FFF7DF
:10195000DBFC012014E02000103000F05FFD0028C7
:10196000F5D0FFF7A5FCF2E720001030FFF7EEFE00
:1019700020002430FFF7EAFEE9E7002000E0002025
:10198000F8BD10B503000298002906D10060C363BA
:1019900001640121FFF799FF10BD0260F7E7F0B580
:1019A00083B004000D00160000282FD00021030C86
:1019B0002A0C002B25D193B2002B14D1002929D158
:1019C000280060430300493326D8483002F07AFFEC
:1019D000071E1CD00200483200903300290020006E
:1019E000FFF7CFFF13E0131C201CA7B2AAB27A4363
:1019F00080B29BB24343120C9B181B0CDED001211A
:101A0000DCE792B2002AFAD1281CEEE70027380062
:101A100003B0F0BD0027FAE70027F8E7F0B583B080
:101A20000400009101921D00FFF77CFC0700A26BEF
:101A3000E36B9A4208D3022D06D000243800FFF74A
:101A400075FC200003B0F0BD4523E65C76B2A36BC5
:101A50002A0000992000FFF7BFFE731C11D1636AB2
:101A6000002B01D10124E9E72000243000F0D6FC4E
:101A7000002810D0019A002A0FD0012313600124FE
:101A8000DCE700F0E7FA864209D2731C5BB245221C
:101A9000A3540124D2E70124D0E70124CEE7012496
:101AA000CCE7F0B585B004000D000192002637E0C8
:101AB00029002000FFF7BEFE013FA7632369002B2A
:101AC00004D1FFF721FC012005B0F0BD200010304B
:101AD00000F0A4FC0028F4D0FFF7EAFBF1E7FFF7E1
:101AE00013FC0020F0E702A800F062FD013621E0BF
:101AF00044230022E25428E045230022E25429E056
:101B00002000FFF7A9FE00F04BFB09E02000FFF7E3
:101B1000A3FE00F045FB2000FFF750FE002835D162
:101B2000FFF7D2FBA76B002FC2D1019B002BD6D0B1
:101B3000002ED8D0FFF7E8FB00F07EFAFFF7C4FBD9
:101B40004423E35C5BB20133D2D04523E35C5BB258
:101B50000133D1D0FFF7D8FB01A902A800F034FD72
:101B60000028D3D12000FFF729FE0028C8D0019912
:101B70002000243000F004FC2000FFF76DFE00F090
:101B80000FFB0028CCD1FFF793FBC9E700209BE7B0
:101B900030B500291CD00024002203E00D4BEC18C6
:101BA00014E00132092A0FD80A4BD5005B195B6893
:101BB0008342F3D0002CF4D1064BD500EB58002B18
:101BC000EFD1044BEC18ECE7002C01D021606060F1
:101BD00030BDC046141B022070B504000D00160075
:101BE000FFF772FB4423E35C5BB201330DD0452366
:101BF000E35C5BB201330CD0FFF786FBA36B002BD9
:101C00000BD02000FFF728FE70BD44230022E254D1
:101C1000EDE745230022E254EEE7200024303200B5
:101C2000290000F0DBFBECE7084B1B681B68002B6E
:101C300004D1074B012252421A607047034B1B68C4
:101C4000DB681A68024B1A60F7E7C046C817002025
:101C5000EC1A022010B50400006B02F0A1FE200077
:101C600002F09EFE10BD0000F8B5DE46574680B576
:101C700082460E0014009B460A9D286B9200A52107
:101C800005F0CCF92F6B1C4B9C466444A4003F1913
:101C900007229743002E0DD000240F2C07D8325D69
:101CA0002B1934331A70002A01D00134F5E743238D
:101CB0000022EA54089B032B01D903230893089BB5
:101CC000EB62281DFFF74DFD28001830FFF749FD96
:101CD0002D610423089A9B1AAB616D625A465146E6
:101CE0003800FFF7D3FA2860099B002B00D01D6055
:101CF000C0BCBB46B246F8BDFFFFFF3FF0B587B0A2
:101D00000490059116001F00900002F0DBFD051EF7
:101D10001DD0602002F0D6FD041E14D060220021E8
:101D200005F07CF925630023039302940D9B019336
:101D30000C9B00933B00320005990498FFF794FF39
:101D4000200007B0F0BD280002F02AFEF8E70400EA
:101D5000F6E7000070B5002407E0A3001B19980007
:101D60000E4BC018FFF7F2FC0134032CF5D90C4DD3
:101D70002800FFF7EBFC0B4C2000FFF7E7FC0A48BC
:101D8000FFF7E4FC0948FFF7E1FC0948FFF7DEFC38
:101D9000084B1D60084B1C6070BDC046D817002062
:101DA000B01A0220C41A0220001B02208C1B022041
:101DB000741B0220C8170020D017002010B50400A3
:101DC000FFF782FA284A136801331360274B1B6818
:101DD000002B0CD0264B1B68002B0DD1234B1B680E
:101DE000DA6AE36A9A4207D8204B1C6004E01F4B72
:101DF0001C601368012B30D01E4A13680133136036
:101E0000E16A1D4B1B68994201D91B4B19601B4AA3
:101E10008B005B189B00D3185B68A3609868E06038
:101E2000211D41609960E06A8300191889008918B2
:101E3000616119188900895801311B189B0099505C
:101E4000FFF762FA0A4B1B68002B05D0074B1B6893
:101E5000DA6AE36A9A4203D310BDFFF77BFFCBE750
:101E6000FFF726FAF8E7C046741A0220C0170020D0
:101E7000641B0220801A0220841A0220D817002036
:101E800010B514E0FFF720FA0B4BDB68DC68201D6F
:101E9000FFF781FC094A1368013B1360084A136885
:101EA000013B1360FFF730FA2000FFF7D3FE044B2D
:101EB0001B68002BE6D110BD8C1B0220741A022077
:101EC000781A022010B5FFF7DBFF034B1B68012BCC
:101ED000F9D9FFF7EDF9F6E7D8170020F0B583B090
:101EE000040001911F4B1E681F4B1F681F4B1D688C
:101EF0001F4B18680430FFF74EFC631C0DD03419DB
:101F00001B4B1B685C60A6421ED9194B1968043133
:101F10002800FFF729FC03B0F0BD019B002BEED099
:101F2000144A5168124B1868816018688C68C46044
:101F30001868043060601868043088601B685A6153
:101F4000136801331360E6E7094B19680431380060
:101F5000FFF70AFC084B1B68A342DCD9064B1C6048
:101F6000D9E7C046A01B0220C8170020D0170020C8
:101F7000C0170020741B0220EC1A022010B582B09A
:101F8000059C0194049C0094FFF7B8FE002804D03F
:101F9000FFF714FF012002B010BD01204042FAE714
:101FA00010B586B000230F2B07DC0F4AD25C02A9C4
:101FB000CA54002A01D00133F5E700240120002C87
:101FC00001DD06B010BD80220848A30008495B1857
:101FD000019300230093520002A9FFF7CFFF0028CE
:101FE000EFD00134EBE7C046349B0010C51E001053
:101FF000E01A022010B5FFF7D3FF012802D00A4BE8
:102000001B6810BD00F082FD0128F8D172B6074BA5
:10201000012252421A60064B02321A60054B00221E
:102020001A60FFF7B3F9EAE79CAB0010EC1A022044
:10203000641B0220A01B0220024A136801331360B4
:102040007047C0467C1A0220014B18687047C04692
:10205000A01B0220014B18687047C046741A02206A
:10206000F8B5444B1B68002B7ED1434B1E680136EC
:102070001E60002E0AD0414B1B68B34213D90020CA
:102080003F4B1B68002B74D0012072E03D4A116861
:102090003D4B1868106019603C4A136801331360A7
:1020A000FFF7C2FDE7E7002033E0344B0122524244
:1020B0001A60E5E7314B1A60E2E7D96851603EE00B
:1020C00000219962116801391160DA6A30490968A2
:1020D0008A4201D92E490A602E499400A418A20010
:1020E0008A1852689A609468DC6065609560DC6A62
:1020F000A2001719BD006D185D61BD006D58013556
:10210000BC006550DA6A244B1B68DB6A9A4200D92E
:1021100001201C4B1B681B68002BC6D0194B1B6889
:10212000DB68DB685A689642C4D35A699C68D968F0
:10213000A1609C684C6051681D1DA942BDD0002162
:1021400059611168013911609A6A002ABDD0DC69B1
:10215000196AA160DC694C605468190018318C421E
:10216000AED1196A5160ABE70C4A136801331360B2
:102170000020F8BD7C1A0220A01B0220EC1A0220CD
:10218000B01B0220C8170020D0170020F01A022030
:10219000841A0220D8170020C0170020FC1A022041
:1021A00010B5FFF791F8444B1A68013A1A601B68A2
:1021B000002B7CD1414B1B68002B07D1002477E01A
:1021C000196A516015E0D968516021E000233C4A4A
:1021D0001268002A4AD03A4BDB68DB689A6AD869F1
:1021E000196A8160D86948605068190018318842BE
:1021F000E6D0002199621168013911605A69986826
:10220000D96881609868486051681C1DA142DAD085
:1022100000215961116801391160D86A294A126890
:10222000904201D9274A1060274982001218920073
:102230008A1852689A609068D86044609460DC6A3A
:10224000A2001019800040185861101980004058F1
:102250000130121992005050D96A1C4A1268D26A91
:102260009142B4D91A4A01211160B0E7002B01D084
:10227000FFF7DAFC174B1C68002C0CD1144B1C68C0
:10228000002C15D0114B1B68FFF712F801240FE04A
:10229000013C002C07D0FFF7E3FE0028F8D00C4BE0
:1022A00001221A60F4E70B4B00221A60E6E70024D3
:1022B000FFF72AF8200010BD7C1A0220741A0220B1
:1022C000001B0220841A0220D8170020C01700200B
:1022D000B01B0220FC1A022010B5041E09D0FFF723
:1022E000ABFE00212000FFF7F9FDFFF759FF0028A2
:1022F00001D1FEF7DDFF10BD10B51C4B1B68002B94
:1023000003D01B4B01221A6010BD194B00221A602A
:10231000184B1B6800E0013B17499A00D218900047
:102320004258002AF7D008009900CC18A200821861
:10233000546864685460C9188A00083212189442BC
:102340000CD00D4A9900C918880012185268D1683B
:102350000A4A116007490B601368D5E7020099002B
:10236000C91888001218D1685160EAE77C1A022067
:10237000B01B0220841A0220D8170020C0170020AA
:1023800010B50C00044B19681831FFF7EDF9012165
:102390002000FFF7A3FD10BDC017002070B503009B
:1023A00010000D4C2568802212060A43AA615A6863
:1023B0002168CA61216895680D62216818316960D9
:1023C000216818319160226893621A6801321A609C
:1023D0000121FFF783FD70BDC017002070B5030019
:1023E000080011005A680C4C2568EA612568966857
:1023F0002E62256818357560256818359560226845
:1024000093621A6801321A60002901D0012040420B
:10241000FFF764FD70BDC046C017002010B5C3684B
:10242000DB689A6AD869196A8160D869486051681E
:1024300018001830814241D0002199621168013999
:102440001160284A1268002A3ED15A699868D968F2
:1024500081609868486051681C1DA14231D00021FC
:102460005961116801391160D86A1F4A1268904297
:1024700001D91D4A10601D498200121892008A1865
:1024800052689A609068D86044609460DC6AA200E8
:102490001019800040185861101980004058013010
:1024A000121992005050DA6A114B1B68DB6A9A428B
:1024B00016D9104B01221A60012010BD196A516013
:1024C000BAE7D9685160CAE70B4A5168D9618C688C
:1024D0001C62606088609A62116801311160E2E7F5
:1024E0000020EAE77C1A0220841A0220D817002074
:1024F000C0170020B01B0220001B022010B5802353
:102500001B060B430360C368026944688168A160CD
:1025100044684C60516881423CD0002101611168DF
:10252000013911605A699868D96881609868486073
:1025300051681C1DA14230D0002159611168013938
:102540001160D86A164A1268904201D9144A106084
:1025500014498200121892008A1852689A60906892
:10256000D86044609460DC6AA200101980004018B2
:1025700058611019800040580130121992005050D3
:10258000DA6A094B1B68DB6A9A4202D9074B0122BF
:102590001A6010BD81685160BFE7D9685160CBE710
:1025A000841A0220D8170020C0170020B01B022078
:1025B000034B1B680360034B1B6843607047C046B6
:1025C000F01A0220A01B0220F8B504000D00FEF74F
:1025D0007BFE124B19686368C81A2A68561C18D00B
:1025E00027680F4E3668B74205D08B4203D80023C8
:1025F0002B6001240EE0824203D800232B600124CB
:1026000008E05B1A9B182B602000FFF7D1FF002425
:1026100000E00024FEF778FE2000F8BDA01B022099
:10262000F01A0220014B01221A607047B01B0220F1
:10263000014B18687047C046C0170020044B1A6849
:1026400090691A68D16A1A6804235B1A936170470B
:10265000C0170020F8B504000F0015001E00FEF79B
:1026600033FE294B1A6812195C321378022B3DD0C5
:1026700025490868230016339B001A58BA431A509C
:102680000A6812195C3201231370069B002B0ED0CE
:10269000FFF7D2FCFEF738FE01210698FFF71EFC7B
:1026A000FFF77EFD002804D1FEF702FE01E0FEF7F1
:1026B0002BFEFEF709FE002E06D0134B1A682300EE
:1026C00016339B009B5833600F4B1B681B195C3300
:1026D0001B78022B0DD000250B4B1B681B195C339C
:1026E00000221A70FEF710FE2800F8BDFEF70CFE5F
:1026F000DFE7054B1968230016339B005A58AA439D
:102700005A500125E8E7C046C0170020F8B504007C
:102710000D0016001F00FEF7D7FD069B002B05D00D
:102720002B0016339B001B59069A136061195C310C
:102730000A78D2B202230B70032F1ED009D8012FC2
:102740000FD0022F12D11635AD002B5901332B516A
:102750000CE0042F0AD1022A50D01635AD002E51BC
:1027600004E01635AD002B5933432B51012A08D014
:102770000124FEF7C9FD2000F8BD1635AD002E512D
:10278000F4E76369A168E2688A60A16851605A68E9
:10279000201D82422BD0002262611A68013A1A6021
:1027A000E16A174B1B68994201D9154B1960154A0C
:1027B0008B005B189B00D3185B68A3609968E1608D
:1027C00048609860E06A830019188900891861617F
:1027D00019188900895801311B189B0099500A4B20
:1027E0001B68DA6AE36A9A4204D30124C1E7E2680B
:1027F0005A60D0E7FEF75CFD0124BAE70024B8E791
:10280000841A0220D8170020C0170020074B1A682E
:102810001368002B06D101330360002B04D1D36869
:10282000186870470023F7E70020FAE7C417002074
:1028300010B54160006191420CD8D21A83699A4266
:1028400001D3012010BD011D094B1868FEF78CFF54
:102850000020F7E79A4201D2994206D2011D054BAA
:102860001868FEF781FF0020ECE70120EAE7C04688
:10287000D4170020C417002070B504000D00160006
:1028800004E0A369ED18236A20009847A16949195B
:102890002B0032002000FFF7CBFF0028F1D170BDE4
:1028A00070B505000E000C4B1B68DB68DC68201D52
:1028B000FEF771FF2423E35C5A0707D401229343F8
:1028C0002332A354236A2000984770BD32002900A8
:1028D0002000FFF7D1FFF5E7C417002010B505E091
:1028E000DB68186801214942FFF7DAFF054B1B68D6
:1028F0001A68002AF4D1034A0349086810600B6083
:1029000010BDC046C4170020D417002070B50500C4
:10291000FFF79AFB0400074B1B68834205D800238E
:102920002B60044B1C60200070BDFFF7D7FF012314
:102930002B60F6E7E41A022070B582B004000D00A7
:10294000FFF77AFB01A8FFF7E1FF0600019B002BD0
:1029500022D1002D14D1A0420BD2A11B104B18681C
:102960002A00FFF739F9FFF71BFC002811D002B04D
:1029700070BDFFF715FC31002000FFF791FFF6E76F
:10298000084A12681268002A01D10125E5E71D00F6
:10299000E3E7FEF78DFCEAE7FFF702FCE7E7C04656
:1029A000A41B0220D417002030B587B010220021CC
:1029B00002A804F033FB02E0029B002B0FDA334B3A
:1029C0001868002202A9FFF76CF800285CD0029B6F
:1029D000002BF1DA039B049805999847ECE7049CD7
:1029E0006369002B02D0201DFEF7D5FE01A8FFF77A
:1029F0008DFF050002990929E1D88900244B595817
:102A00008F462422A35C01210B43A354039BA1699D
:102A1000591802002000FFF70BFF0028CFD0242315
:102A2000E35C5A0707D4012293432332A354236A59
:102A300020009847C3E70399A369C9182A0020001A
:102A4000FFF71AFFF3E72422A35C01218B43A35471
:102A5000B5E72422A35C01210B43A3540399A16190
:102A60000918030002002000FFF7E2FEA7E7242375
:102A7000E35C9A0704D5012293432332A3549EE7D3
:102A8000200001F08DFF9AE707B030BDA41B0220A3
:102A9000A0AB001000B583B001A8FFF7B7FE019905
:102AA000FFF74AFFFFF780FFF6E7000070B5FEF77B
:102AB0000BFC104B1B68002B02D0FEF725FC70BDF1
:102AC0000D4D2800FEF742FE0C4C2000FEF73EFEA6
:102AD0000B4B1D600B4B1C60002210210A20FEF7DF
:102AE0005EFF044B18600028E7D00749FFF750F855
:102AF000E3E7C046A41B0220881A02209C1A022089
:102B0000C4170020D41700203C9B001000B583B0F0
:102B1000FFF7CCFF094B1B68002B0CD08022084923
:102B20000848094B01930323009300235200FFF749
:102B300025FA03B000BD0020FBE7C046A41B02201D
:102B4000449B0010952A0010A81B022010B584B0E9
:102B500014001A0002235B42009301900291039437
:102B6000034B186800236946FEF758FF04B010BDF8
:102B7000A41B0220F8B5DE4657464E464546E0B552
:102B800006000F0015000A9A934250D31A0E92467F
:102B90001B0298460A9A00234046514603F084FBE4
:102BA00081467400A419A4002F4B9C4664446368BA
:102BB000834200D26060331FDBB29B46012B3CD9BD
:102BC000C0239B012343802212011A60274BB200CD
:102BD000D158002907D0586903F028FB0130430081
:102BE0001B18033BFDD26D0123685D40E0222A40A3
:102BF00080235B0123431A605A46012A28D9802387
:102C00009B012343802212011A604B4663604A46AF
:102C100000234046514603F047FB144BB600985141
:102C20000120F0BCBB46B246A946A046F8BD104BF9
:102C3000104A1148332103F0E7F9012FC0D1C02316
:102C40009B01234303221A60A368DB07FCD5CAE774
:102C50002168794003220A401A60A3680125BD401B
:102C60001D42FAD0CBE7C04600800040E8120020A9
:102C70004C9B0010C8AB0010609B001030B583B0B7
:102C80000C2001F0FDFC00F07FF800280DD000239F
:102C900004E02E4A99002E4888500133092BF8D9B8
:102CA0002A4B2C4A5A6203B030BD2B4B00229A6744
:102CB00001F058FD294B01221A60274B5B6C012B58
:102CC000FBD1274B03221A60234B9B6B012BFBD1BB
:102CD000013300930433234A0121234801F040FCCF
:102CE00005230093214A0121214801F039FC214BA1
:102CF0000093002202210420FFF73CFF1E4D0095A7
:102D00002B00002201210520FFF734FF104C009416
:102D10002300002200210720FFF72CFF009423004E
:102D2000002200210820FFF725FF0A4B0093230013
:102D3000002200210920FFF71DFF00952B00002233
:102D400000210620FFF716FFADE7C046E81200207D
:102D5000006CDC021BB70000008000403CB000406B
:102D600030B00040002F685900800240008C864738
:102D700000C00240001BB70040597307014B8000A0
:102D8000C0587047E8120020034B1B68022018400F
:102D9000431E9841C0B2704700C00640EFF3108058
:102DA00072B6034B1B68002BFBD0BFF35F8F7047DD
:102DB0002C0100D0BFF35F8F024B00221A6080F31A
:102DC000108870472C0100D0F8B506000C001500E3
:102DD000FFF7E4FFE308F718F15C07222240012324
:102DE00093400B4205D1DBB20B433B70FFF7E2FF90
:102DF000F8BD2100280003F09FF9F0B583B006006C
:102E0000019114001F00FFF7C9FF00E00134BC422C
:102E10000CD8E308F518F35C0721214001228A4011
:102E20001A42F3D1D2B21A432A7001E0012464425B
:102E3000FFF7C0FF002C02DB200003B0F0BD019BB8
:102E4000002BF9D0089803F077F90000002307E081
:102E5000054A9A189200BFF35F8F00211160013379
:102E60001F2BF5D97047C04640000034054A107842
:102E7000431CDBB21370172B02D9130010221A70F7
:102E80007047C046710B002010B582B00100054CA0
:102E9000054B00931F2318222000FFF7AEFF02B05E
:102EA00010BDC046E4120020BC9B001010B583008A
:102EB000084A944663441A684024624080341440AF
:102EC0008022520113431C60C000034B9C466044A7
:102ED000416010BD04C001400040014010B5012315
:102EE0008340D0221206936293610521FFF7DEFF33
:102EF00010BD0000074B9B68103080001950BFF3D5
:102F00005F8FBFF35F8F044B0021196082F310883D
:102F10007047C04600ED00E0240100D010B50388E2
:102F2000DA0A1C2A05D15B055B1502335B00C01869
:102F300010BD034B034A0448B12103F065F8C046B5
:102F4000D89B00102CAC0010F09B001010B5091A93
:102F50000B1F0A4A88180A4A904208D8C90706D4A3
:102F60005B105B055B0D0748184380B210BD064B34
:102F7000064A0748A32103F047F8C046FC070000B3
:102F8000FE0F000000E0FFFF489C001020AC001086
:102F9000F09B001010B5091A04394A08090B08D132
:102FA0004905490D064B0B430380064B13434380F1
:102FB00010BD054B054A0648AB2103F025F8C04675
:102FC00000F0FFFF00F8FFFF789C0010F4AB00104A
:102FD000F09B001001238340034A10681840431EF1
:102FE0009841C0B27047C04600E100E0002904D01B
:102FF000034B1860034B18607047034B1860FBE7E6
:1030000080E200E000E100E080E100E010B5012393
:1030100083401800FFF7EAFF10BD00000123834042
:10302000014A13607047C04600E200E0024B9B6813
:1030300010308000C058704700ED00E010B5FFF779
:10304000F5FF002805D0054BC01A2F2803D8012012
:1030500010BD0020FCE70020FAE7C046740B0020FA
:1030600070B504000D00EFF3108672B60C4B1B68B0
:10307000002BFBD0BFF35F8F2000FFF7D7FF094B7A
:10308000984201D0A84205D1320029002000FFF764
:1030900031FF70BD044B054A0548862102F0B4FF9C
:1030A000240100D0CD010010889C001054AC001009
:1030B000F09B0010F0B5DE4657464E464546E0B55B
:1030C00089B0814601911500EFF3108A72B66D4BFD
:1030D0001B68002BFBD0BFF35F8F6B4B00269E5706
:1030E000002E41DB7400A419A400684824180622AD
:1030F000A256654B1A70664B9A684B4610339B007C
:10310000D35898461F00181A2F2839D9614B984573
:1031100030D105AF604B3B80604973009B469819E6
:1031200080005A4B984640440230FFF70FFF7880EA
:103130005B4BBB80FF23BB71FD71019B0793330089
:103140005B449B00434407CF07C301231C43A046B5
:10315000524641464846FFF7CDFE09B0F0BCBB469B
:10316000B246A946A046F0BD4E4B4F4A4F48D72124
:1031700002F04AFF4E4B4C4A4C48DE2102F044FF1D
:1031800001380C2103F052F8002912D101239F438A
:10319000BB463B000027DA79AA4211D906215956CD
:1031A00000290CDB4A005218920038491F008B1886
:1031B000F1E7404B3C4A3D48EA2102F025FF1F0061
:1031C000002F2ED005AB3C4A1A80813A5A80062344
:1031D000FB560293002B17DA384805AB9B469880C4
:1031E000029A9A71DD71019A0792381D2100FFF74A
:1031F000ADFEB880BE71254B7200921992009B18EB
:103200005A4613CA13C3A3E7381DFFF787FE010010
:103210007000801980001D4BC0180430FFF796FE27
:10322000DBE705AF1C4B3B801C49730002939B19E5
:103230009B00164A90461A0042440392901CFFF7E6
:1032400085FE7880039A101D5946FFF77FFEB880EF
:103250001B4B5A464146521A524153431B0DBB71F8
:10326000FD71019A0792029B9B199B00434407CF73
:1032700007C3114B5A461380813B538001231C43E3
:10328000A04665E7240100D0B81B0220740B002083
:1032900000ED00E0CD01001000A1FFFFA40B002015
:1032A00001BDFFFFC09C00103CAC0010F09B001063
:1032B000E89C0010109D00100148000001BD0000B6
:1032C000AAAA0000F0B5CE46474680B583B00600F6
:1032D0000D00EFF3108872B64F4B1B68002BFBD02C
:1032E000BFF35F8F4D4B9A6834001034A300D7585A
:1032F0004B4B9F4207D0AF4200D18BE00197494B27
:10330000FB1A2F2B09D9424639003000FFF7F2FD96
:1033100003B0C0BCB946B046F0BD3000FFF75AFE5E
:10332000814600213000FFF771FEBFF35F8FEFF39E
:103330000581002901D08C4211D10123019C9C43BD
:103340000020A368AB4212D00622A256002A0DDB51
:1033500053009B189B00334A2000D418F1E7324BEE
:10336000324A36213248FF3102F04EFE2000AB4295
:1033700049D106256557002D2BDB2A4B6A005219CF
:1033800092009B189A68A260DA79E2719B795BB22D
:10339000A371002B0FDA2748A080224B6A00521934
:1033A00092009B18244A1178997115704946300093
:1033B000FFF72CFEA7E7680040198000194BC018E2
:1033C0000430FFF7ABFD0100231D1800FFF7BEFD21
:1033D000E2E7002912D100280ED0FF238371174B9A
:1033E000838015490B78A3710E4A154BA41A6441CA
:1033F00063431B0D0B70D9E7094FF2E71149201DFC
:10340000FFF7C8FDD2E7104B084A6A210848FF3190
:1034100002F0FAFD024F76E7240100D000ED00E053
:10342000CD010010740B0020849D00100CAC001026
:10343000F09B001001BD0000B81B022001BDFFFF82
:10344000AAAA0000AE0B0020B89D001010B50323FF
:1034500004009C43064A9446644422681840C00015
:10346000FC3383409A43130081400B43236010BD1B
:1034700000E400E070B5012202432E4BD31A2F2B3B
:1034800028D8EFF30583002B2BD0EFF3108C72B606
:10349000294909680029FBD0BFF35F8F254C2749D4
:1034A00005002D1B6D416943090D4CB22449896803
:1034B0009B00C95891421BD00021032932D81D4BD3
:1034C0004A00521892009B189B795BB2A3421FD00E
:1034D0000131F2E71B4B1C4AC7211C48490002F08E
:1034E00093FD1B4B184A92211848FF3102F08CFDC6
:1034F000134A92681749D150174B1A7882711C7081
:10350000BFF35F8F0C4B00221A608CF3108870BDE4
:10351000084B4A005518AD005D19FF26AE710F4AE1
:10352000AA80E9E70E4B084AD1210848490002F079
:103530006BFDC046740B0020240100D0AAAA000035
:1035400000ED00E0C09D0010D8AB0010F09B001013
:10355000E89D0010CD010010B81B022001BDFFFF47
:10356000F49D00100022044B02E0044902C3013222
:10357000072AFAD97047C04600E400E080808080C6
:1035800010B582B00100074C074B009305230022C1
:103590002000FFF732FC002801DB1F23181A02B0BD
:1035A00010BDC046BD1B0220FC9D0010024B9C4676
:1035B00061448900016070474000003410B5002B61
:1035C00002DB0260436010BD024B034A03483F2107
:1035D00002F01AFDB89A001094AC0010D49A0010B2
:1035E00070B582B0060014001D00FA22920000237C
:1035F0000698002103F058FC02000B0012196B41E1
:10360000002B09DB6846FFF7D9FF009A019B326067
:103610007360300002B070BD01225242004BF1E7EE
:10362000FFFFFF7F10B582B0040000F009FD02002B
:103630000B006846FFF7C2FF009A019B226063609F
:10364000200002B010BD30B585B004000D0002A806
:10365000FFF7E8FF029A039B00952000FFF7C0FFE9
:10366000200005B030BD10B50400FFF7FFFB0100DE
:103670002000FFF79BFF01235B426360BFF35F8F76
:1036800010BD10B50400FFF7F1FB01002000FFF7AB
:103690008DFF01235B42636000232372BFF35F8FC2
:1036A00010BD0000034B9C46614489000160BFF3DC
:1036B0005F8F70474000003410B504000120FFF711
:1036C000E3FB01002000FFF7EDFF10BD084B5B6A34
:1036D000994209D8064A926A824207D2994201D099
:1036E000012002E0002000E0002070470120FCE7FC
:1036F0000040054010B500290AD003681B7B8B42AF
:1037000006D38068054B9C4661440901401810BDF2
:10371000034B044A04483C2102F076FCFFFFFF0FF4
:10372000BC9E00107CAD0010E09E0010F8B50400B7
:103730001700FFF7DFFF0668456839002000FFF734
:10374000D9FF026843680120AB4201D802D00020B3
:10375000C0B2F8BDB242FBD8F9E7000010B5002BAB
:1037600002DB0260436010BD024B034A03483F2165
:1037700002F04AFCB89A001048AD0010D49A00102C
:1037800010B582B004000498059912184B41002B23
:1037900009DB6846FFF7E2FF009A019B2260636045
:1037A000200002B010BD01225242014BF1E7C04699
:1037B000FFFFFF7F10B5002908D0037B8B4205D3A4
:1037C00000684B005B18033BC01810BD024B034A56
:1037D0000348682102F018FC309F001024AD00104F
:1037E0004C9F001010B5437B8B4201D1012010BDCE
:1037F000FFF7E0FF8378002B01D10020F7E70120DD
:10380000F5E770B50400857B002D01D1280070BD5F
:103810002900FFF7CFFF4378A373002B00D1E37398
:103820000023837043700370F0E70000F8B50600D2
:103830000C001500FFF7BEFF0700002C0DD0002D77
:1038400011D0AC4215D029003000FFF7B3FF8470CF
:103850003B78002B13D13D70F8BD0A4B0A4A0B4848
:103860006F2102F0D1FB0A4B074A0848702102F091
:10387000CBFB084B044A0548712102F0C5FB43709D
:103880003D70E9E7B09F001000AD00104C9F0010A4
:10389000BC9F0010C89F001070B506000D001400FA
:1038A000002914D0002A14D0436880689847002863
:1038B00006D0220029003000FFF7B8FF280007E0FB
:1038C0002A0021003000FFF7B1FF200000E01000C7
:1038D00070BD0800FCE7000070B504000D1E0CD0A0
:1038E000FFF768FF0023837043700370617B2A0039
:1038F0002000FFF7D1FF607370BD034B034A0448FB
:10390000A52102F081FBC046E09F001014AD00101D
:103910004C9F001070B504000D1E0FD0FFF762FF22
:1039200000280BD1E17B00290ED1A37B002B03D112
:10393000E37B002B0DD1A573E57370BD084B094ADD
:103940000948F62102F060FB2000FFF733FF4570C5
:10395000EBE7064B034A0448FB2102F055FBC04647
:10396000E49F0010F0AC00104C9F001008A0001065
:1039700010B5002907D003681B7B8B4203D3C068B6
:103980000139401810BD034B034A0448412102F09D
:103990003BFBC046BC9E0010DCAC0010E09E00105B
:1039A00070B505000C00080000F044FC0949200037
:1039B00000F084FBFFF75AFA074B9C4660448000F6
:1039C00068602C75D0231B061B786B75034BA40015
:1039D000E55070BD993A001040000034AC1700204B
:1039E00010B582B0040000F02BFB02000B0068460B
:1039F000FFF7B4FE009A019B22606360200002B0D2
:103A000010BD0000F0B583B0070001921D000AABA5
:103A10001C780BAB1E78002C0BD000682100FFF740
:103A2000E1FE002809D0194B194A1A48672102F013
:103A3000EBFA0068FFF7E5FE0400002C02D120003D
:103A400003B0F0BD21003800FFF754FE019B036076
:103A50004560089B8360099BC36038682100FFF7BD
:103A60003BFFA042EBD1387D019A2B0000F06EFBAA
:103A7000051E01D0002E04D00C9B002BDFD01D7042
:103A8000DDE73868210000F01BFDF5E71CA0001001
:103A900030AD0010E09E0010F0B5DE4657464E46B1
:103AA0004546E0B58FB00B900021794B8200D45889
:103AB000894683E029002000FFF71CFE804602684B
:103AC0004368921BBB41002B09DD43461A685B68C3
:103AD0000B9800F03BFB0023984600268AE0002B61
:103AE00001D1002AF1D10021584600F0DFFC070087
:103AF000A84215D143461A685B6808920993434669
:103B00009E68DB689846002E10D029002000FFF741
:103B10002FFF037899461B021F432761002069E0AD
:103B20005C4B5D4A5D488E2102F06EFA5C4B5A4A4E
:103B30005A48922102F068FA2369002B00D177E0FD
:103B4000BB4219D106980799002342428B4100924B
:103B50000193089A099B0CA8FFF712FE0C9A0D9B83
:103B60000021049101310391029541460191009693
:103B70002000FFF747FF16E04A4B474A4748A1217C
:103B800002F042FA069A079B002B01D1002A52D17B
:103B900020682900FFF7BEFE29002000FFF7E8FE9D
:103BA000037801330370002323616268BFF35F8FE2
:103BB00013608AF310880120002861D00CA8FFF759
:103BC0000FFF0C9E0D9F002200230892099362684C
:103BD000EFF3108A72B61368002BFCD0BFF35F8F2F
:103BE00023689B465D7B002D00D063E70023984649
:103BF000002600206368BFF35F8F00221A608AF3FB
:103C00001088002ED8D04B461F022F434146380063
:103C1000B047069007916268EFF3108A72B6136896
:103C2000002BFCD0BFF35F8F079B002B00DA83E7EC
:103C3000079B002BA6DD2369002BA9D0BB4219D11D
:103C40000CA8FFF7CDFE0C9A0D9B069807990090E3
:103C500001910CA8FFF794FD0C9A0D9B0021049193
:103C60000131039102954146019100962000FFF732
:103C7000C9FE98E70B4B084A0848A42102F0C4F992
:103C80000FB0F0BCBB46B246A946A046F0BDC04648
:103C9000AC17002044A0001060AD0010E09E0010A2
:103CA0005CA0001068A0001010B5084B1A68EFF374
:103CB000108172B61368002BFCD0BFF35F8F0348EE
:103CC000FDF7CCFB0020002110BDC046381A0020B3
:103CD00010B50C4B5B68002B04D00B480A21FFF792
:103CE00065FC10BD074C094A20682300102100F034
:103CF00048FB032000F098F903212000FFF750FE55
:103D0000EBE7C046BC0B0020381A00202D3700100E
:103D100010B5064B5B68002B01D0044810BD044B66
:103D2000044A05485E2102F06FF9C046BC0B002032
:103D3000A4A00010C4AC0010E09E0010F0B5DE4658
:103D400057464E464546E0B58DB0060090461F00EA
:103D5000169B9A46179B994618AB1B780793272307
:103D600002AA9446634400221A7021E00100300048
:103D7000FFF7FEFD00783CE00698002B5CD0079B27
:103D8000002B59D04946D04704000D0003000B43D7
:103D900059D0002940DB08A8FFF722FE089A099BAA
:103DA0000094019508A8FFF7EBFC089B9846099F33
:103DB0007268EFF3108B72B6136859424B41D9B257
:103DC0000691002BF8D1BFF35F8F273302AA9446E8
:103DD000634404930023039302934B460193534699
:103DE000009342463B003000FFF70CFE0400051E26
:103DF000BCD17368BFF35F8F002119608BF310880B
:103E0000002D17D0272302AA944663441B78002B69
:103E1000B2D100022043B0E700236242AB410092DE
:103E2000019342463B0008A8FFF7AAFC089B98466E
:103E3000099FBDE7012040420DB0F0BCBB46B24631
:103E4000A946A046F0BD0698F6E7F0B5C64600B50F
:103E500084B00500884616001F000AAB1C78FFF7E7
:103E600057FF0294019700962A004346FFF766FF2A
:103E700004B080BCB846F0BDF0B5C64600B505003C
:103E80000C1E42D04268EFF3108772B61368002B05
:103E9000FCD0BFF35F8FE6B22B6898463100180064
:103EA000FFF7A0FC00282AD02B69A34213D0240AD4
:103EB000E4B231002800FFF75BFD0378A34211D084
:103EC00000206B68BFF35F8F00221A6087F31088B1
:103ED00080BCB846F0BD0E4B0E4A2C210E48FF3177
:103EE00002F092F83100404600F0EAFA0028E8D1EA
:103EF0000A4B084A99210848490002F085F82B69C5
:103F0000A342DED100232B61DBE70020E0E7C046BF
:103F1000C8A00010ACAC0010E09E0010ECA0001097
:103F200010B50400FFF7F4FE2100FFF7A5FF10BD58
:103F3000407D704730B583B005000C00EFF305837A
:103F4000002B0FD10B4A00230093FFF77EFF0028C0
:103F50000BDD20BFFFF7E4FF28002100FFF7B6FBD1
:103F600003B030BDFFF7B2FBFAE728002100FFF7EE
:103F7000ADFBF5E7A93C001010B5002B02DB026099
:103F8000436010BD024B034A03483F2102F03CF856
:103F9000B89A0010A4AD0010D49A001070B5EFF3D9
:103FA00005801038EFF3108C72B6194B1B68002B8C
:103FB000FBD0BFF35F8F01221300834015494B6391
:103FC00015490B60154909780C00C440224213D0F2
:103FD000104A546A124A8500AA58944205D3114ADD
:103FE000AA580E4C9943217007E00A4A031D9B0012
:103FF00099589950002200E00022BFF35F8F044BD4
:10400000002119608CF31088002A00D0904770BD01
:10401000280100D0004005403C700540BC1B022038
:10402000441A0020CC11002010B50100024A034BB5
:104030001800FEF7C9FE10BDF0A00010B71B02204B
:10404000044B5B6A034A906A1900536A9942F9D19A
:104050007047C04600400540084B5B6A01E0074BD3
:104060005B6A8B42FBD301E0044B5B6A8B4203D15A
:10407000024B9B6A8342F7D37047C046004005401D
:10408000F0B583B004000D00FFF7DAFF06000F0063
:1040900022002B0092197B41994202D804D1904210
:1040A00002D901225242D3176846FFF765FF0098F4
:1040B0000199FFF7D1FF03B0F0BD000070B5040017
:1040C0000E00EFF3108572B61B4B1B68002BFBD064
:1040D000BFF35F8F002E1CD02000FEF7A7FF174B09
:1040E00083420BD019002000FEF7BAFF0121200007
:1040F000FEF78CFF0123A340114A1360114BA4006B
:10410000E650BFF35F8F0C4B00221A6085F31088D6
:1041100070BD0C4BA2000021D1500122A2400A49DF
:104120000B7893430B7005492000FFF7CBF8002173
:104130002000FEF76BFFE4E7280100D09D3F001050
:1041400038600540CC110020BC1B0220F0B5DE46D3
:1041500000B584B00400150001921E000293FFF721
:104160006FFF03958E4202D84ED185424CD9EFF3B2
:10417000108B72B6274B1B68002BFBD0BFF35F8FF1
:10418000254A17780125A540EBB23B431370234B1A
:104190005D63221D92000199D150214AA10002982D
:1041A00088501B6A2B4212D11C4B1B6C2B4208D02F
:1041B0000020BFF35F8F174B00221A608BF310882B
:1041C00023E0184B184A1948C52101F01DFFFFF7DD
:1041D00037FF8E4214D802D1039B834210D80E4B76
:1041E0001B78BB420ED00D4B1D625D631F22224027
:1041F000012393400E4A1360074B1F700120D8E73C
:104200000020D6E70120D4E7012004B080BCBB46E3
:10421000F0BDC046280100D0BC1B02200040054074
:10422000441A002014A1001088AD001038A100101D
:1042300080E200E0EFF3108C72B60B4B1B68002B92
:10424000FBD0BFF35F8F01238340084A1362084904
:104250000A789A430A70BFF35F8F034B00221A60FB
:104260008CF310887047C046280100D000400540FC
:10427000BC1B022010B5002908D0037B8B4205D35C
:1042800000684B005B18033BC01810BD024B034A8B
:104290000348682101F0B8FE309F0010FCAD00100B
:1042A0004C9F0010F8B506000C001500FFF7E2FF68
:1042B0000700002C0DD0002D11D0AC4215D02900E4
:1042C0003000FFF7D7FF84703B78002B13D13D708F
:1042D000F8BD0A4B0A4A0B486F2101F095FE0A4BC4
:1042E000074A0848702101F08FFE084B044A054830
:1042F000712101F089FE43703D70E9E7B09F001025
:10430000E8AD00104C9F0010BC9F0010C89F00102B
:1043100070B506000D001400002914D0002A14D036
:10432000436880689847002806D0220029003000A2
:10433000FFF7B8FF280007E02A0021003000FFF750
:10434000B1FF200000E0100070BD0800FCE770B570
:1043500005000023437301338373037BC37301247C
:1043600006E021002800FFF785FF0134E4B2447025
:10437000297BA142F5D82800FFF77CFF002343707A
:1043800070BD10B5017342608360FFF7E0FF10BDA0
:10439000F0B5C64600B505000C1E03D1200080BC58
:1043A000B846F0BDFFF766FF4678002EF6D0310024
:1043B0002800FFF75FFF47780023984643702100ED
:1043C0002800FFF757FF43464370320021002800C2
:1043D000FFF79EFF040039002800FFF7D9FF020015
:1043E00021002800FFF794FF0400D7E7F0B5C64688
:1043F00000B504000D001700002927D0FFF73AFF91
:104400004378002B28D18378002B2BD10178200012
:10441000FFF7BEFF06008046002F0AD0E17B00298F
:1044200026D1A37B002B03D1E37B002B25D1A573E1
:10443000E5734346002B26D129002000FFF71AFF21
:1044400000234370300080BCB846F0BD114B124AC7
:104450001248382101F0D8FD114B0F4A0F483A217C
:1044600001F0D2FD0F4B0C4A0C483B2101F0CCFD72
:104470002000FFF7FFFE4570D3E70B4B064A0748C5
:10448000422101F0C1FD31002000FFF7F3FE0023BF
:104490008370D1E794A10010D4AD00109CA100104E
:1044A000ECA1001014A2001008A0001070B50400C8
:1044B0000A00457B2900FFF799FF6073280070BD53
:1044C00070B506000C1E40D0437B8B4207D0FFF72F
:1044D000D1FE05008178002906D1002036E00121B7
:1044E000FFF7E4FF012031E03000FFF7C3FE017861
:1044F000A1420DD03000FFF7BDFE4178A1420AD0A5
:104500000029F7D1124B134A13486B3101F07CFD9F
:104510006B78037001E06B7843700023AB706B70B5
:10452000012221003000FFF761FF0200717B814210
:1045300005D03000FFF7ECFE7073012006E0074B5A
:10454000044A0548712101F05FFD002070BDC0469E
:10455000F49D0010BCAD00109CA1001038A200100A
:10456000F0B5C64600B504000E0017001D00374820
:1045700001F05CFE8046364BFA18364B9A4239D829
:104580000100380001F052FE0200103A98235B004F
:104590009A4235D86B1E062B38D8069B013B062B5A
:1045A00034D83F09474537D32D04069B1B031D43D1
:1045B0002368002B36DB284B9C4244D080235B01D0
:1045C000264A1360264A1360264A926819009143CE
:1045D000FAD12660A060221DC0239B011343212233
:1045E0001A602268002AFCDAE56008221A6080BCA2
:1045F000B846F0BD1C4B1D4A1D48112101F004FDB9
:104600001C4B1A4A1A48192101F0FEFC1A4B174A92
:1046100017481C2101F0F8FC184B144A14482321B8
:1046200001F0F2FC22683F231340B342C3D1A368D8
:104630001B051B0D8342BED1E368EE22D20213405C
:10464000AB42B8D1D3E780239B01B9E7001BB70089
:1046500080E84BD380F8A93200C0024000E000405F
:1046600000F0004000C0004058A2001008AE00104A
:10467000B8A2001010A300102CA3001078A3001003
:1046800080239B000343014AD362704700800540AA
:10469000024B1A68024B5A607047C04684170020CC
:1046A0000080054010B5174B8022D2051A60164BCA
:1046B000164A1A6000290AD0154BE022D2041A606B
:1046C000002809D1124B802212061A6010BD0D4B32
:1046D000E022D2041A60F3E743011B1A9B0018186A
:1046E00000010C4B186080235B04984202D3094BF5
:1046F000094A1A60FFF7CCFF054B8022D2051A60E9
:10470000E4E7C04600B0054008200140FCFF01007E
:1047100000A0054084170020FFFFFF0010B5030034
:1047200010000C4A8024E4051460002B0DD00122F7
:104730001343094A094CD461094C5C40146251622C
:1047400093620021FFF7AEFF10BD034B0022DA6138
:10475000F7E7C04600B0054000800540D3C007B071
:104760002D3FF84F064BAA2212011A602F22DA6061
:10477000044B054A1A60024B5B68002BFBDA70475A
:10478000004002400060024000B0FA00054B984231
:1047900004D3054B984203D3002000E0002070476B
:1047A0000120FCE7C0010010CC010010044B9B6805
:1047B000103080001950BFF35F8F82F3108870476C
:1047C00000ED00E0024B9B6810308000C05870473D
:1047D00000ED00E0F8B505000E00EFF3108772B6AB
:1047E000FFF7F0FF0400B04203D0FFF7CFFF00282F
:1047F00006D03A0031002800FFF7D8FF2000F8BDAE
:10480000024B034A03482F2101F0FEFB94A3001042
:1048100014AE0010D8A30010104A53071BD0D11DAE
:104820000723994380239B025B1A9B180A000C48BC
:10483000026000214160D318083B072083430948E8
:10484000036059601960991A51601360064B196032
:10485000064B1960704780239B02E8E7541A00203A
:104860006C1B0220CC170020E81A0220DC1A022060
:1048700010B5124B1A001B688342FBD351685418C1
:10488000844208D041684418A34209D00360904292
:1048900000D0106010BD4068091851601000F1E7A9
:1048A000074C2468A34206D05B68C91841601368AE
:1048B0001B680360EBE70460E9E7C0466C1B02205D
:1048C000CC17002070B5041E10D0030009330CD89B
:1048D0000834072213002340224207D00132D21AA3
:1048E000093BA34212D3A41800E00024FDF7A4FB67
:1048F000264B1B68002B0BD0002C3EDB3FD0244BFB
:104900001E68A6423DD323490B6806E00024EDE76C
:10491000FFF782FFF0E7190013005A68A24202D2A3
:104920001A68002AF7D1194A12689A422BD00D68EA
:1049300008351A680A605868001B102805D91A192A
:1049400050605C60086810600A605968761A104808
:10495000066011480068864201D20F480660802236
:1049600012060A435A6000221A600C4A1368013387
:104970001360FDF715FC280070BD0025F9E7002540
:10498000F7E70025F5E70025F3E7C046CC17002040
:10499000DC1A02206C1B0220E81A0220F41A022002
:1049A00070B5002804D00500083D6B68002B00DBC3
:1049B00070BD2A68002AFBD15B005B086B60FDF7C5
:1049C0003BFB6968064A13685B1813602800FFF711
:1049D0004FFF044A136801331360FDF7E1FBE7E77B
:1049E000DC1A0220F81A0220084B5B6A994209D8A7
:1049F000064A926A824207D2994201D0012002E01F
:104A0000002000E0002070470120FCE70040054046
:104A100010B50300080011001B68984710BD000086
:104A2000F8B507000D001600437D002B02D00024CE
:104A300000200CE003681100280098472DE03B7D22
:104A400010E03B68154802219847601C0134B442CD
:104A500014DA002CF3DD2B19013B1B780D3B5A4275
:104A60005341DBB22A5D0A2AF0D1002BEED1A042DD
:104A7000E7DA3B68211A28189847E2E7B04203DAE0
:104A80003B68311A28189847002E06DDAD19013D04
:104A90002B780D3B5A4253413B75F8BD48AE001090
:104AA00070B505000368002B16D00C4B1C6805E0A0
:104AB000290004C92000FFF7B3FF2469002C09D0A6
:104AC0002368002BF9D0064B1B68002BF0D0A342C3
:104AD000F3D1EDE700232B6070BDC04678130020B2
:104AE0008013002070B505000C000B68802B05D0EA
:104AF00023685A1C2260E418257170BD0800FFF776
:104B0000CFFFF5E710B5002B02DB0260436010BD5C
:104B1000024B034A03483F2101F076FAB89A00108D
:104B20004CAE0010D49A001010B582B00400FFF70C
:104B300087FA02000B006846FFF7E4FF009A019B2A
:104B400022606360200002B010BD000070B582B02A
:104B5000060014001D00FA2292000023069800218E
:104B600002F0A2F902000B0012196B41002B09DBC5
:104B70006846FFF7C7FF009A019B32607360300000
:104B800002B070BD01225242004BF1E7FFFFFF7FF0
:104B900030B585B004000D0002A8FFF7C5FF029AEA
:104BA000039B00952000FFF7D1FF200005B030BD2A
:104BB00010B582B004000498059912184B41002BDF
:104BC00009DB6846FFF79EFF009A019B2260636045
:104BD000200002B010BD01225242014BF1E7C04655
:104BE000FFFFFF7F70B584B0040016001D0002A80F
:104BF000FFF79AFF029A039B009601952000FFF7AA
:104C0000D7FF200004B070BDF8B5CE46474680B54A
:104C100007000E00914698461BE0A368002B04D0C5
:104C2000310038009847002818DC2469002C06D091
:104C30000C4D2D68002DF0D0A542F6D1EDE7484689
:104C40004146FFF7D1FE002806D101200021FFF7E1
:104C500017FA054B1C68E9E701204042C0BCB94681
:104C6000B046F8BD801300207813002000B583B053
:104C7000FA2189006846FFF78BFF009A019B0248E2
:104C800004F002FE03B000BD500C002010B5024835
:104C900004F0B2FD10BDC046500C0020F0B5CE4669
:104CA000474680B583B006000D0090461C00FFF714
:104CB000DDFF81466B1C05D0002C08D0194F1A4B24
:104CC0001C6807E0300004F05DFD0500F4E7174FB5
:104CD000F5E72469002C17D02368002BF9D0144B7A
:104CE0001B68002B01D0A342F3D12A003100200021
:104CF000B8474346002BECD06B46D91D0A230B70F6
:104D000001222000B847E4E74B46002B07D16B1E79
:104D10009D41E8B203B0C0BCB946B046F0BDFFF754
:104D2000B5FFF4E7114A001078130020214A001063
:104D300080130020094A01E010331A001368002B89
:104D400008D08342F8D1002907D1036913600023FA
:104D5000036102E0002900D0106070477813002042
:104D600010B5064B1C6801E098472469002C03D05D
:104D70006368002BF8D1F8E710BDC0467813002017
:104D800070B5050004F0FEFC0400002301220100C0
:104D90002800FFF783FFFFF7E3FF200070BD00004E
:104DA00070B5A2B004000E00FFF760FF05000023FD
:104DB00001930A483300220001A901F00FF9040011
:104DC00001A8FFF76DFEFFF7CBFF002D02D12000F9
:104DD00022B070BDFFF75AFFF9E7C046E54A001060
:104DE0000FB400B583B004A901C90191FFF7D8FF42
:104DF00003B008BC04B0184710B502F0C9FA10BDE2
:104E000000B585B0020000236846FFF7EBFE009A6C
:104E1000019B012103A8FFF7F7FE002802DB03D066
:104E200003AB187805B000BD034B044A9E2104482B
:104E3000490001F0E9F8C046ECA0001034AE0010C3
:104E400048A40010704710B5002802D00B684968CC
:104E5000984710BD0100002007E083001B185B008D
:104E6000501C08601078C01830380A681378303B3E
:104E7000DBB2092BF1D97047F0B5DE4657464E46F6
:104E80004546E0B583B093461F000C9B9A460D9CA7
:104E90000E9B99460F9B9B0703D0B8460F00060058
:104EA00022E00192A34688464E46B9460700B44226
:104EB00007D2551C4B4641462020B84701342A00F2
:104EC000F5E73D004F465C46019B9B46B146464692
:104ED000B84637002E0007E0013C551C5346185DCC
:104EE00043463900B0472A00002CF5D135003E007A
:104EF00047460F9B9B0707D4100003B0F0BCBB468E
:104F0000B246A946A046F0BDB0464E46B9462F006F
:104F10005D46531BB342EFD2541C4B464146202002
:104F2000B8472200F5E7F0B5CE46474680B585B0D4
:104F3000944698460C9D0D9C0EAB1B789946109A92
:104F4000119B129EB7071CD4002B0CD0F7070AD573
:104F50004F46002F02D10C37374204D0013B02E00C
:104F600030272F550134944201D21F2CF8D9F7076E
:104F700007D59C4205D21F2C03D830272F5501346A
:104F8000F5E7F70612D5770505D4002C03D0944237
:104F900021D09C421FD00F9A102A32D00F9A022A99
:104FA00037D01F2C0AD830222A5501341F2C05D89F
:104FB0004A46002A33D02D222A5501340396029303
:104FC0000194009543466246FFF756FF05B0C0BC0A
:104FD000B946B046F0BD621E012C10D00F9F102FB5
:104FE0000BD014000F9A102AD8D1B206D6D51F2C98
:104FF000D4D858222A550134D3E7023CCBE7140019
:10500000C9E7B206EED41F2CECD878222A55013419
:10501000C7E71F2CD2D860322A550134C1E7720786
:1050200003D52B222A550134C8E73207C6D52022E2
:105030002A550134C2E7F0B5DE4657464E4645468E
:10504000E0B593B081468A46089209931CAB10CB19
:105050001B789B461E9D219B9846002C03D1102354
:1050600042469A4390468023DB0046461E40424615
:105070001A4212D0002C22D000260EE03033D9B2D2
:10508000771C0AAB99552900200001F0CFF8AC42FB
:1050900016D31F2F14D83E0004002900200001F071
:1050A000C5F8CBB2092BE9D94246920605D5412174
:1050B000C918C9B20A39C9B2E2E76121F8E7270085
:1050C00043460693209B05931F9B049303955B46E1
:1050D000029301970AAB0093099B089A51464846F0
:1050E000FFF721FF13B0F0BCBB46B246A946A0466D
:1050F000F0BDF0B5DE4657464E464546E0B597B0A2
:105100000A900B910C929A46209B9946219F22AAC5
:1051100013789B46249B0993259C289B98464A46D6
:105120003A4302D11032934398468022D20045463A
:105130001540434613420AD04A463A4341D000251F
:105140002E0053460D934D46099B9A461BE02E00B8
:1051500053460D934D46099B9A4614E03033DAB21C
:10516000731C99460EAB9A5552462300280039000D
:1051700001F09AF8BC4226D819D04B461F2B1CD8F8
:105180004E4605000F00524623002800390001F06A
:105190008BF8D3B2092BE1D94246920605D54122BC
:1051A000D218D2B20A3AD2B2DAE76122F8E7AA45B7
:1051B000E3D94E460D9B9A4608E04E460D9B9A4613
:1051C00004E0002602E04E460D9B9A4643460693B5
:1051D000279B0593269B0493099B03935B460293AD
:1051E00001960EAB009353460C9A0B990A98FFF761
:1051F0009AFE17B0F0BCBB46B246A946A046F0BD29
:10520000F0B5DE4657464E464546E0B591B080467D
:1052100089460C929A461A9C1B9D22002B00200066
:10522000290001F0CCFA002800D0ECE00122524223
:10523000D44B2000290001F0BDFA002800D0E2E0A4
:1052400001225242D04B2000290001F09DFA002893
:1052500000D0D8E0002200232000290001F094FAB9
:10526000002800D0E4E0069407958023DB001E9A16
:105270001A400D921E9A1A4201D106231C930698D9
:10528000079902000B000892099303000A000243E9
:1052900000D1D9E0080D4005400DBC4EB446604435
:1052A0000A03120B1E00BA4B13431F0001F09AFAB7
:1052B000B84AB94B01F025FAB84AB94B01F0FAF9EE
:1052C000089009910022B74B3000390001F0E9F94C
:1052D000B54AB64B01F015FA02000B00089809997F
:1052E00001F0E8F901F096FA834601F07BFA060036
:1052F0000F00AF4AAF4B01F004FA0022AE4B01F0B1
:10530000D9F901F087FA0890AC4AAD4B300039006A
:1053100001F0F7F906000F00089801F063FAA94AB6
:10532000A94B01F0EEF902000B003000390001F04A
:10533000B8F906000F0002000B0001F0E2F90A9034
:105340000B91089BA14A94466344002100220891D6
:1053500009921B0509930023089332003B0030009B
:10536000390001F0A7F90E900F9132003B000020A8
:105370008021C90501F095F906000F000022944B29
:105380000A980B9901F09FF90022924B01F092F9D3
:1053900002000B000A980B9901F095F900228E4B40
:1053A00001F088F902000B000A980B9901F08BF9C3
:1053B00002000B003000390001F07CF902000B0004
:1053C0000E980F9901F07FF90022714B01F072F9EC
:1053D000089A099B01F095F906000F0008960997B5
:1053E000069A079B01F0E6F900282FD001235B42C3
:1053F0009C46E3440022774B3000390001F063F90A
:105400000890099122E01E9B04931D9B03931C9B13
:1054100002930094019553460C9A4946404600F089
:10542000FFF811B0F0BCBB46B246A946A046F0BD9D
:105430000021002206910792069480231B069C46B9
:10544000AC446346079310E700239B465B466333F7
:10545000C62B20D804261E9B1B0528D5089A099B1D
:10546000190011430FD05D4A5D4B0698079901F072
:1054700099F900287AD000225A4B0698079901F032
:1054800083F9002872D01C9B5B4506DD5A469B1AA7
:10549000013B1C9303E00526DDE700231C938023DA
:1054A000DB001E9A1A431E92002600239B461D9B7A
:1054B0009E4265D29F1B02231E9A1A400A921E9A90
:1054C000134202D0002E00D000275B46002B07D0ED
:1054D000089A099B0698079901F0F5F8069007913C
:1054E000002200232000290001F04EF9002800D0FE
:1054F0007CE03D4B1E9A1340049303971C9B029340
:10550000069B079C0093019453460C9A49464046DB
:1055100000F086F8002E00D183E71E9B9B0671D514
:105520004525441C5346020049462800C0475A46B8
:10553000D317D2185A4005230593013E0496002341
:1055400003930A3302935B46DB0F019300925346A9
:10555000220049464046FFF76EFD0A9B002B00D112
:105560005FE7020047460C9E1D9D53E01C9B002BED
:105570009DD00D9B002B9AD01C9B013B1C9396E762
:10558000002798E7FFFFEF7FFFFFEFFF01FCFFFF22
:105590000000F03FFB799F501344D33FB3C8608BAA
:1055A000288AC63F0000F83F61436F63A787D23F58
:1055B00071A379094F930A400000E03F1655B5BB2F
:1055C000B16B0240EF39FAFE422EE63FFF030000C6
:1055D00000002C4000002440000018402D431CEB2C
:1055E000E2361A3F80842E41FFF7FFFF069C079D9D
:1055F0002200290080200006844661440B000692A8
:10560000079376E765258CE7541C534649462020CE
:10561000B8472200931BAB42F6D3100001E7C04607
:10562000F0B5DE4657464E464546E0B595B0069085
:10563000079193469946209F1E9A1F9B10001900C0
:1056400001F0BDF8002831D101225242BF4B1E9813
:105650001F9901F099F8002837D101225242BC4B22
:105660001E981F9901F0A6F800283DD10022B94BE1
:105670001E981F9901F09EF8002850D10022B64BC9
:105680001E981F9901F080F8002848D100220023BD
:105690001E981F9901F078F8002850D100239846F1
:1056A000229B5B0500D4B6E0002458E0229B0393C4
:1056B000219B029303230193A84B00934B465A4628
:1056C00007990698FFF7D8FB0EE1229B0393219BD5
:1056D000029304230193A24B00934B465A46079929
:1056E0000698FFF7C9FBFFE00423229A1A4022998B
:1056F0000B4210D09B4B002A0FD004222299039119
:1057000021990291019200934B465A4607990698B7
:10571000FFF7B2FBE8E0944BEDE70322EEE7229BB4
:105720000493219B039302971E9B1F9C009301945B
:105730004B465A4607990698FFF762FDD4E01E9A39
:105740001F9B0020002100F0ACFF1E901F91012341
:105750009846A5E70CAB30221A55013F01341F2CA7
:1057600001D8092FF6D81E981F9901F053F80500AB
:1057700001F038F802000B001E981F9900F091FF0D
:105780007A4BFA009B181A685B680A920B9300F038
:10579000B8FF0890099101F061F8060001F01EF8C9
:1057A00002000B000898099900F07BFF089009910E
:1057B00000226F4B00F0FEFF00282ED00136300093
:1057C00001F00CF802000B000A980B9900F0E2FFC0
:1057D000002801D001350026002F2CD1280001F02F
:1057E00001F802000B001E981F9900F05AFF0600F6
:1057F0000F0000225E4B00F0C7FF002846D10022B8
:105800005B4B3000390000F0D5FF00283ED1EB079C
:105810003CD501353AE0062746E70022544B08986C
:10582000099900F0B1FF0028D6D1002E01D0F3076E
:10583000D2D50136D0E7AA461F2C11D8013F0A2144
:10584000300000F0F3FC651C30310CAB19550A2117
:10585000300000F0EBFC092E0ED906002C00EBE71F
:1058600055461F2C0CD87B1E002F09D00CAA3021C6
:1058700011551F000134F4E72B0055461C00F0E7DA
:105880001F2C03D80CAB2E221A5501341F2C10D814
:105890000A21280000F0A2FC661C30310CAB19551F
:1058A0000A21280000F09AFC051E01D03400EDE723
:1058B00034000323229A1340012B1CD01F2C06D83E
:1058C0004346002B32D00CAB2D221A550134229BBB
:1058D0000393219B029301940CAB00934B465A46D1
:1058E00007990698FFF7C8FA15B0F0BCBB46B24658
:1058F000A946A046F0BD219B002B13D04346002BA8
:1059000002D10C3313420FD0219B013B219319008C
:1059100003E00CAB30221A5501348C42CED21F2C3E
:10592000F7D9CBE72199F8E72199F6E7229B5B07A6
:1059300004D50CAB2B221A550134C8E7229B1B0758
:10594000C5D50CAB20221A550134C0E7FFFFEFFF8D
:10595000FFFFEF7F65CDCD4165CDCDC1ACA400107B
:10596000B0A40010A0A40010A8A4001000B0001063
:105970000000E03FF0B5DE4657464E464546E0B5EE
:1059800093B08246884693461193002900D10DE3D7
:1059900000255646119B1878002800D109E32528D8
:1059A00009D06C1C5B462A004146B047119B01336D
:1059B00011932500EEE701331193002720E0012326
:1059C0001F4301321192012418E002231F430132C8
:1059D0001192012412E004231F4301321192012489
:1059E0000CE008231F4301321192012406E010232A
:1059F0001F4301321192012400E00024002C09D041
:105A0000119A1378203BD9B21029F6D88B00C849D7
:105A1000CB589F46119B1A781300303BDBB2092B01
:105A200010D92A2A13D00B94119B1A782E2A1ED033
:105A3000119A1378683BD9B2122959D88B00BD4905
:105A4000CB589F4611A8FFF705FA0B90ECE71C9B7B
:105A50001A1D1C921B68002B04DB0B93119B013356
:105A60001193E1E7022217435B420B93F6E7802292
:105A7000D20017435A1C11925A781300303BDBB204
:105A8000092B0BD92A2AD3D11C9B1A1D1C921C68E6
:105A9000002C08DB119B01331193C9E711A8FFF714
:105AA000D9F90400C4E70024F4E780235B003B43FA
:105AB000511C119151786C2901D01F0018E0C023AE
:105AC0009B001F430232119212E080233B43511C82
:105AD00011915178682901D01F0009E0C0231F43AC
